:0A09F10000010202030304040505DF
:1005AA00E4F513F512F511F510F51BF51AF519F521
:1005BA0018C203C200C202C2011208B87E0A7F0032
:1005CA008E238F24752B0A752C1275210A75221C0D
:1005DA0075290A752A4A752D0A752E7890E680E0E3
:1005EA0030E70E852125852226852927852A288018
:1005FA000C852925852A26852127852228EE54E07F
:10060A0070030207257514007515807E0A7F008E17
:10061A00168F17C3749A9FFF740A9ECF2402CF3491
:10062A0000FEE48F0F8E0EF50DF50CF50BF50AF5AD
:10063A0009F508AF0FAE0EAD0DAC0CAB0BAA0AA9AB
:10064A0009A808C3120C71502AE515250BF582E595
:10065A0014350AF58374CDF0E4FAF9F8E50B2401B0
:10066A00F50BEA350AF50AE93509F509E83508F519
:10067A000880C0E4F50BF50AF509F508AF0FAE0ED0
:10068A00AD0DAC0CAB0BAA0AA909A808C3120C71D0
:10069A005037E517250BF582E516350AF583E0FF95
:1006AA00E515250BF582E514350AF583EFF0E4FA32
:1006BA00F9F8E50B2401F50BEA350AF50AE93509DB
:1006CA00F509E83508F50880B385142385152474DF
:1006DA00002480FF740A34FFFEC3E52C9FF52CE545
:1006EA002B9EF52BC3E5269FF526E5259EF525C30A
:1006FA00E5289FF528E5279EF527C3E5229FF522E1
:10070A00E5219EF521C3E52A9FF52AE5299EF529CB
:10071A00C3E52E9FF52EE52D9EF52DD2E843D82070
:10072A0090E668E04409F090E65CE0443DF0D2AF20
:10073A0090E680E020E105D205120B5090E680E0B9
:10074A0054F7F0538EF8C203300105120300C201B8
:10075A00300329120C8D5024C203120BAB20001651
:10076A0090E682E030E704E020E1EF90E682E030B4
:10077A00E604E020E0E4120B7F120C8F120BD0800B
:01078A00C7A7
:01078B00224B
:1003000090E6B9E070030203DC1470030204882451
:10031000FE700302052424FB70030203D61470034D
:100320000203D01470030203C41470030203CA242E
:10033000056003020596120C9140030205A290E6A7
:10034000BBE024FE602C14604724FD60161460316D
:1003500024067066E52390E6B3F0E52490E6B4F059
:100360000205A2E52B90E6B3F0E52C90E6B4F0028E
:1003700005A2E52590E6B3F0E52690E6B4F0020587
:10038000A2E52790E6B3F0E52890E6B4F00205A2D6
:1003900090E6BAE0FF1207D5AA06A9077B01EA4951
:1003A0004B600DEE90E6B3F0EF90E6B4F00205A2DC
:1003B00090E6A0E04401F00205A290E6A0E044012E
:1003C000F00205A2120C5F0205A2120C820205A225
:1003D00012078C0205A2120C4D0205A2120C9340CA
:1003E000030205A290E6B8E0247F602B14603C2451
:1003F00002600302047EA200E433FF25E0FFA202B4
:10040000E4334F90E740F0E4A3F090E68AF090E602
:100410008B7402F00205A2E490E740F0A3F090E6AE
:100420008AF090E68B7402F00205A290E6BCE0D35D
:1004300094807480948040067E007F0180047E005A
:100440007F0090E6BCE0547EFDEEEF4D24F1F58296
:1004500074093EF583E493FF3395E0FEEF24A1FF9A
:10046000EE34E68F82F583E0540190E740F0E4A398
:10047000F090E68AF090E68B7402F00205A290E616
:10048000A0E04401F00205A2120C9540030205A26F
:1004900090E6B8E024FE601E240260030205A290EC
:1004A000E6BAE064017005C2000205A290E6A0E091
:1004B0004401F00205A290E6BAE0705C90E6BCE070
:1004C000D394807480948040067E007F0180047EF7
:1004D000007F0090E6BCE0547EFDEEEF4D24F1F588
:1004E0008274093EF583E493FF3395E0FEEF24A187
:1004F000FFEE34E68F82F583E054FEF090E6BCE038
:100500005480FF131313541FFFE0540F2F90E68302
:10051000F0E04420F00205A290E6A0E04401F002E1
:1005200005A2807E120C97507990E6B8E024FE6018
:10053000212402706D90E6BAE064017004D200805C
:100540006190E6BAE06402605990E6A0E04401F0F0
:10055000805090E6BCE0D394807480948040067E06
:10056000007F0180047E007F0090E6BCE0547EFDA9
:10057000EEEF4D24F1F58274093EF583E493FF33E9
:1005800095E0FEEF24A1FFEE34E68F82F583E04490
:1005900001F0800E800C120C99500790E6A0E04408
:0905A00001F090E6A0E04480F0B7
:0105A900222F
:030033000209FBC4
:0409FB0053D8EF32AC
:100A00001201000200000040B40401DE00000102F7
:100A100000010A06000200000040010009022E0049
:100A200001010080320904000004FF0000000705F6
:100A30000202000200070504020002000705860208
:100A40000002000705880200020009022E000101D1
:100A50000080320904000004FF00000007050202C4
:100A60004000000705040240000007058602400020
:100A70000007058802400000040309041003430036
:100A80007900700072006500730073000E0345006A
:0C0A90005A002D005500530042000000E9
:020C8A00C104A3
:1008B80090E6007412F090E6027408F000000090D0
:1008C800E603740FF000000090E670E04480F0004A
:1008D800000090E6017403F000000090E61274A294
:1008E800F000000090E613F000000090E61474E2B7
:1008F800F000000090E615F000000000000090E60F
:10090800047480F00000007402F00000007404F029
:100918000000007406F00000007408F0000000E415
:10092800F000000090E618F00000007411F00000DC
:100938000090E61A740DF000000090E61BF000002D
:100948000043B20200000043800200000043B401EB
:0D09580000000000000053B4FD000000226C
:100BD000E5A020E102D204300416E5A030E1119036
:100BE000E6017403F000000043A001000000C2040D
:010BF00022E2
:020C8D00D32270
:020C8F00D3226E
:020C9100D3226C
:10078C0090E680E030E71E90E6247402F000000052
:10079C0090E626F0000000E490E625F000000090C2
:1007AC00E627F0801CE490E624F000000090E6269A
:1007BC00F000000090E6257440F000000090E62761
:0907CC00F090E6BAE0F51FD3221B
:100C4D0090E740E51FF0E490E68AF090E68B04F023
:020C5D00D322A0
:080C820090E6BAE0F51ED32252
:100C5F0090E740E51EF0E490E68AF090E68B04F012
:020C6F00D3228E
:020C9300D3226A
:020C9500D32268
:020C9700D32266
:020C9900D32264
:100BF100C0E0C083C082D2015391EF90E65D7401E1
:080C0100F0D082D083D0E03274
:100C2100C0E0C083C0825391EF90E65D7404F0D0C0
:060C310082D083D0E03206
:100C3700C0E0C083C0825391EF90E65D7402F0D0AC
:060C470082D083D0E032F0
:100AE200C0E0C083C08290E680E030E70E85212519
:100AF200852226852927852A28800C852925852A6D
:100B0200268521278522285391EF90E65D7410F007
:070B1200D082D083D0E03255
:100C0900C0E0C083C082D2035391EF90E65D7408BF
:080C1900F0D082D083D0E0325C
:100B1900C0E0C083C08290E680E030E70E852125E1
:100B2900852226852927852A28800C852925852A35
:100B3900268521278522285391EF90E65D7420F0C0
:070B4900D082D083D0E0321E
:0109FF0032C5
:010C9B003226
:010C9C003225
:010C9D003224
:010C9E003223
:010C9F003222
:010CA0003221
:010CA1003220
:010CA200321F
:010CA300321E
:010CA400321D
:010CA500321C
:010CA600321B
:010CA700321A
:010CA8003219
:010CA9003218
:010CAA003217
:010CAB003216
:010CAC003215
:010CAD003214
:010CAE003213
:010CAF003212
:010CB0003211
:010CB1003210
:010CB200320F
:010CB300320E
:010CB400320D
:010CB500320C
:010CB600320B
:010CB700320A
:010CB8003209
:010CB9003208
:010CBA003207
:010CBB003206
:010CBC003205
:010CBD003204
:100B7F0090E682E030E004E020E60B90E682E03081
:100B8F00E119E030E71590E680E04401F07F147E34
:0C0B9F0000120A9C90E680E054FEF02258
:100B500030050990E680E0440AF0800790E680E0E6
:100B60004408F07FDC7E05120A9C90E65D74FFF07D
:0F0B700090E65FF05391EF90E680E054F7F022AB
:0207D500A90772
:1007D700AE2DAF2E8F828E83A3E064037017AD0119
:1007E70019ED7001228F828E83E07C002FFDEC3E95
:0807F700FEAF0580DFE4FEFF08
:0107FF0022D7
:100BAB0090E682E044C0F090E681F04387010000BC
:040BBB000000002214
:100A9C008E1C8F1D90E600E054187012E51D240189
:100AAC00FFE4351CC313F51CEF13F51D801590E600
:100ABC0000E05418FFBF100BE51D25E0F51DE51CEB
:100ACC0033F51CE51D151DAE1C7002151C4E600582
:060ADC00120BBF80EE22A8
:100BBF007400F58690FDA57C05A3E582458370F949
:010BCF002203
:03004300020800B0
:03005300020800A0
:10080000020BF100020C3700020C2100020C09005F
:10081000020AE200020B19000209FF00020C9B0011
:10082000020C9C00020C9D00020C9E00020C9F001A
:10083000020CA000020CA100020CA200020CA300FA
:10084000020CA400020C9B00020CA500020CA600E6
:10085000020CA700020CA800020CA900020CAA00BE
:10086000020CAB00020C9B00020C9B00020C9B00D4
:10087000020CAC00020CAD00020CAE00020CAF008A
:10088000020CB000020CB100020CB200020CB3006A
:10089000020CB400020CB500020CB600020CB7004A
:1008A000020CB800020CB900020CBA00020CBB002A
:0808B000020CBC00020CBD00AB
:030000000209658D
:0C096500787FE4F6D8FD75812E0209AC05
:100C7100EB9FF5F0EA9E42F0E99D42F0E89C45F0D9
:010C81002250
:100971000205AAE493A3F8E493A34003F68001F2ED
:1009810008DFF48029E493A3F85407240CC8C33387
:10099100C4540F4420C8834004F456800146F6DF56
:1009A100E4800B0102040810204080900C8AE47E50
:1009B100019360BCA3FF543F30E509541FFEE4934B
:1009C100A360010ECF54C025E060A840B8E493A312
:1009D100FAE493A3F8E493A3C8C582C8CAC583CA3D
:1009E100F0A3C8C582C8CAC583CADFE9DEE780BEF5
:010C8C000067
:00000001FF
